:100000000C944F010C9477010C9477010C947701B8
:100010000C9477010C9477010C9477010C94770180
:100020000C9477010C9477010C9477010C94770170
:100030000C9477010C9477010C9477010C94770160
:100040000C94AA090C9477010C9477010C94770115
:100050000C9477010C9477010C9477010C94770140
:100060000C9477010C9477013C2F63656E74657274
:100070003E3C68723E203C703E2056312E30203C83
:100080006120687265663D22687474703A2F2F771C
:1000900077772E6E75656C656374726F6E696373C6
:1000A0002E636F6D223E7777772E6E75656C656374
:1000B00074726F6E6963732E636F6D3C613E003CBA
:1000C000696E70757420747970653D7375626D69C1
:1000D000742076616C75653D224765742054656DAA
:1000E0007065726174757265223E3C2F666F726D29
:1000F0003E003C696E70757420747970653D686966
:100100006464656E206E616D653D636D642076612B
:100110006C75653D313E0020202623313736433C47
:100120002F666F6E743E3C2F68313E3C62723E20FB
:10013000003C68313E3C666F6E7420636F6C6F727A
:100140003D2223303046463030223E20003C68328B
:100150003E2043757272656E742054656D706572D1
:100160006174757265206973203C2F68323E2000EF
:10017000223E003C68723E3C62723E3C666F726D8D
:10018000204D4554484F443D676574206163746950
:100190006F6E3D22003C63656E7465723E3C703E3E
:1001A0003C68313E57656C636F6D6520746F20410C
:1001B000726475696E6F2045746865726E6574202F
:1001C000536869656C642056312E3020203C2F68BE
:1001D000313E3C2F703E2000485454502F312E3079
:1001E00020323030204F4B0D0A436F6E74656E74B1
:1001F0002D547970653A20746578742F68746D6C2D
:100200000D0A0D0A00485454502F312E3020323040
:1002100030204F4B0D0A436F6E74656E742D547908
:1002200070653A20746578742F68746D6C0D0A0DD2
:100230000A3C68313E323030204F4B3C2F68313E13
:100240000000000000240027002A00000000002514
:100250000028002B000000000023002600290004D5
:10026000040404040404040202020202020303035D
:100270000303030102040810204080010204081057
:100280002001020408102000000007000201000005
:10029000030406000000000000000000EB0611242B
:1002A0001FBECFEFD8E0DEBFCDBF11E0A0E0B1E0D0
:1002B000EEE9F6E102C005900D92AE32B107D9F732
:1002C00013E0AEE2B1E001C01D92A535B107E1F740
:1002D00012E0CEE9D2E004C02297FE010E94490B51
:1002E000CC39D107C9F70E94A3090C944D0B0C948B
:1002F0000000FB01DC014150504030F08D91019035
:10030000801919F40020B9F7881B990B08950F93F1
:100310001F93CF93DF938C01EB018AE060E00E9492
:10032000840A8AE78EBD0DB407FEFDCF08C0888120
:100330008EBD0DB407FEFDCF015010402196011572
:100340001105A9F78AE061E00E94840ADF91CF914C
:100350001F910F9108950F931F93CF93DF938C01FB
:10036000EB018AE060E00E94840A8AE38EBD0DB44E
:1003700007FEFDCF9801FE0108C01EBC0DB407FEAC
:10038000FDCF215030408EB5819321153105A9F75D
:10039000C00FD11F18828AE061E00E94840ADF91B9
:1003A000CF911F910F910895FF920F931F93082FE4
:1003B000162FF42E8AE060E00E94840A1F71102B31
:1003C0001EBD0DB407FEFDCFFEBC0DB407FEFDCF74
:1003D0008AE061E00E94840A1F910F91FF900895C6
:1003E0001F93CF93DF93182FC82FD0E0C076D07023
:1003F00080912E0190E0C817D90791F080EA6FE153
:1004000043E00E94D40185E0D595C7958A95E1F730
:1004100080E86FE14C2F0E94D401107610932E01DA
:10042000DF91CF911F9108950F931F93182F062FDF
:100430000E94F00180E4612F402F0E94D4011F919F
:100440000F910895682F677085E70E941402089540
:100450000F931F93182F062F8AE060E00E94840AF2
:10046000802F8F71812B8EBD0DB407FEFDCF1EBC7A
:100470000DB407FEFDCF07FF04C01EBC0DB407FE80
:10048000FDCF8AE061E00E94840A8EB51F910F9132
:1004900008951F93182F0E94F00180E0612F0E94A1
:1004A00028021F910895EF92FF920F931F938C01E2
:1004B0007B0182E06FEF0E94140283E069E10E94F9
:1004C0001402602F615086E00E94140298012150AE
:1004D000364E87E0632F0E9414028AE760E040E016
:1004E0000E94D401C801B7010E94870180E86FE132
:1004F00048E00E94D4018CE10E94490281FF05C0BE
:1005000080EA6FE148E00E94D4011F910F91FF90B3
:10051000EF900895AF92BF92CF92DF92EF92FF9249
:100520000F931F93CF93DF936C015B0189E30E94CC
:100530004902882319F4C0E0D0E05DC080E06091FA
:100540002F010E9414026091300181E00E94140288
:100550008AE360E00E942802082F10E01093300127
:1005600000932F018AE360E00E942802382F20E0E8
:10057000202B312B3093300120932F018AE360E050
:100580000E942802E82E8AE360E00E942802F82EEA
:100590008AE360E00E942802082F10E08AE360E00E
:1005A0000E942802382F20E0202B312B27FD03C08A
:1005B000C0E0D0E011C0CE2DD0E09F2D80E0C82B50
:1005C000D92BC601019724978C179D0708F4EC01DD
:1005D000CE01B5010E94AB018CE060912F010E9419
:1005E0001402609130018DE00E94140280E86EE1F7
:1005F00040E40E94D401CE01DF91CF911F910F9171
:10060000FF90EF90DF90CF90BF90AF9008950F9341
:100610001F93982F162F072F84ED692F0E94140225
:1006200086ED612F0E94140287ED602F0E94140254
:1006300004C08FE090E00E941C0A8AEE0E944902EA
:1006400080FDF7CF1F910F9108950F931F938C0199
:100650008AE061E00E94640A8AE061E00E94840A04
:100660008BE061E00E94640A8DE061E00E94640A10
:100670008CE060E00E94640A8BE060E00E94840AE3
:100680008DE060E00E94840A80E58CBD8DB58160BC
:100690008DBD8FEF60E04FEF0E94D40162E370E008
:1006A00080E090E00E94F2091092300110922F0138
:1006B00088E060E00E94140289E060E00E94140279
:1006C0008CE060E00E9414028DE060E00E94140261
:1006D0008AE06EEF0E9414028BE069E10E9414022E
:1006E00084E06FEF0E94140285E069E10E94140229
:1006F00086E06FEF0E94140287E06FE10E9414020F
:1007000088E360EB0E94140288E26FE30E94140207
:1007100089E260E30E94140280E369EF0E94140200
:1007200081E367EF0E94140280EC6DE00E941402E6
:1007300081EC60E00E94140280E862EC42E30E94D7
:10074000D40186EC62E10E94140287EC6CE00E9406
:10075000140284EC62E10E9414028AEC6CED0E94A7
:1007600014028BEC65E00E94140284EEF8016081B3
:100770000E94140285EEF80161810E94140282EE4B
:10078000F80162810E94140283EEF80163810E94E5
:10079000140280EEF80164810E94140281EEF801D7
:1007A00065810E94140280E160E071E00E9407030D
:1007B0008FE10E94F00180E86BE140EC0E94D401DF
:1007C00080E86FE144E00E94D4011F910F910895E9
:1007D000EF92FF920F931F93CF93DF937C014130F1
:1007E00061F4685070409B0140E050E0685F7F4FCB
:1007F0002F5E3F4F4F4F5F4F12C0423029F020E035
:1008000030E040E050E00BC0685070409B0140E099
:1008100050E0685F7F4F2A5F3F4F4F4F5F4FE701C8
:100820008B010FC0F881E0E0898190E08E2B9F2B37
:10083000A0E0B0E0280F391F4A1F5B1F229602502C
:1008400010400230110570F7FB01EE7FEE0DFF1D29
:1008500060FF0DC0908180E0AA2797FDA095BA2F78
:1008600002C040705070280F391F4A1F5B1FCA0119
:10087000AA27BB270097A105B10599F720953095C8
:10088000C901DF91CF911F910F91FF90EF900895D3
:10089000CF93DF93EC0140930D0120E030E0F901AC
:1008A000E55CFE4FDB01A20FB31F8C9180832F5FAD
:1008B0003F4F2430310599F720E030E0F901EB5C3F
:1008C000FE4FDE01A20FB31F8C9180832F5F3F4F3D
:1008D0002630310599F7DF91CF910895FC016932F7
:1008E0007105B0F08485883099F48585863081F46F
:1008F000DF019696EBE3F1E09C918081981741F43B
:100900001196319681E0EF33F807B1F781E0089551
:1009100080E00895FC016A327105D0F0848588304A
:10092000B9F485858823A1F48685853489F4DF01AF
:10093000EBE3F1E05E969C915E978081981741F41D
:100940001196319681E0EF33F807A1F781E0089521
:1009500080E008950F931F938C01FC01108E118E7F
:1009600080E4848B158A868BC8010E9664E170E062
:1009700040E00E94E803F801908F818F1F910F9152
:100980000895AC01FC01ABE3B1E0828D868F8D91BF
:10099000828F319681E0AF33B807B9F7CA010E9460
:1009A000AA040895FC0182A184A312A283A185A3B5
:1009B00013A280910D0183A3DF01999694E08C919D
:1009C000680F711D14968C91149714966C9314975C
:1009D000222311F08C9301C01C92915011979923FE
:1009E00019F0672F7727EBCF222349F416A217A21D
:1009F00080910C0180A711A68E5F80930C0112AA32
:100A000013AA442351F082E086AB84E087AB85E0F3
:100A100080AF80E881AF80E601C080E586A70895B9
:100A20008091310190913201892B19F420E030E05E
:100A300006C020913301309134012E5D3F4FC90132
:100A40000895FC01908980E0218930E0282B392B22
:100A500086A582958F7090E0880F991F880F991F47
:100A6000909334018093330124513040281B390B7B
:100A700030933201209331011216130624F01092A4
:100A800032011092310108956A5C7F4FDC01A60F9C
:100A9000B71F6653704003C08D936F5F7F4FFA019D
:100AA0004F5F5F4F84918823B9F7CB010895FA0116
:100AB0006A5C7F4FDC01A60FB71F6653704004C00D
:100AC0008D936F5F7F4F319680818823C9F7CB016B
:100AD0000895EF92FF920F931F938C017B0189E1A0
:100AE000F80187A7CB018896908B818BC8010E9463
:100AF000AA04F80112AA13AA8CE190E0E80EF91EEC
:100B0000C8014A96B70142E00E94E803F80192AB9F
:100B100083ABC7014A96B8010E9453021F910F91FF
:100B2000FF90EF900895CF93DF93EC01FC01A5E3D4
:100B3000B1E0868180838D918683319681E0AB33ED
:100B4000B807B9F780E18FA7609131017091320148
:100B50006115710521F4CE0161E070E001C0CE01A4
:100B600040E021E00E94D204188A88E2898BCE01FD
:100B70000E94C104CE014A966CE170E042E00E94FE
:100B8000E8039AAB8BAB86E390E0BE010E94530270
:100B9000DF91CF910895CF93DF93EC01FC01A5E3A2
:100BA000B1E0868180838D918683319681E0AB337D
:100BB000B807B9F7188A8CE2898BCE010E94C1046C
:100BC00082E18FA7CE0161E070E041E020E00E9469
:100BD000D204CE014A9660E270E042E00E94E8034F
:100BE0009AAB8BAB8AE390E0BE010E945302DF9187
:100BF000CF9108950F931F93CF93DF93EC018B0157
:100C0000FC01A5E3B1E0868180838D9186833196D6
:100C100081E0AB33B807B9F7CE010E94C1041AA234
:100C20008CA1883F18F08DA18F5F8DA38CA1885F68
:100C30008CA3C801BE010E945302DF91CF911F9186
:100C40000F910895CF93DF93AC01EC0125E331E0E0
:100C5000FC01D901868180838D918683319681E064
:100C6000AB33B807B9F7FA01148A82E0858B8E8915
:100C700088A3F90181919F018E8B2196F1E02B339E
:100C80003F07A9F7FA017C96ABE3B1E08081828748
:100C90008D91819381E0AF33B807C1F78AE290E08C
:100CA000BA010E945302DF91CF9108950895CB01BC
:100CB000BA010E9469050895CB010E949305089529
:100CC0000E9410050895CB010E9421050895CB01D3
:100CD0000E94CB050895CB01BA010E94FA05089540
:100CE000CB01BA010E948A040895CB010E9422061A
:100CF0000895CB01BA010E946E040895CB01BA0198
:100D0000422F0E9448040895CB01BA010E948A0232
:100D10000895862FBA010E9407030895862F0E9426
:100D200022020895CB010E9425030895CB01BA0148
:100D3000A9010E9457050895CB01BA01A9010E949B
:100D400044050895CF93DF93EC01FB0140E010C010
:100D50008081981759F431968081882341F4219637
:100D600088818D3319F4FB0141E001C0FB0121961C
:100D70009881992329F0903219F0442349F302C055
:100D80004130C1F49C2FA0E4B1E002C08D932196C4
:100D90009E01291BE22F8881882341F0803231F0A7
:100DA000863221F031E0A635B30781F7F0E0E05C50
:100DB000FE4F1082842FDF91CF91089560E071E0A3
:100DC0000E94A206882329F08091400180538A3036
:100DD00008F08FEF08958FE391E00E945606089582
:100DE0000F931F93CF93DF93182F08E0C62FD0E007
:100DF00060FF15C0812F60E00E94840A812F61E0AE
:100E00000E94640A85E090E00E941C0A812F60E045
:100E10000E94640A8CE390E00E941C0A10C0812F9B
:100E200060E00E94840A812F61E00E94640A8CE3E2
:100E300090E00E941C0A812F60E00E94640A015029
:100E400021F0D595C7956C2FD1CFDF91CF911F9110
:100E50000F9108951F93182F60E00E94840A812F3C
:100E600061E00E94640A84EF91E00E941C0A812FD5
:100E700060E00E94640A84EF91E00E941C0A1F91C6
:100E80000895EF92FF920F931F93F82EEE248F2D6B
:100E900060E00E94840A8F2D61E00E94640A85E070
:100EA00090E00E941C0A8F2D60E00E94640A85E099
:100EB00090E00E941C0A8F2D0E94D10A182F82E315
:100EC00090E00E941C0A802F8695012F079500272D
:100ED0000795082BE39488E0E816C9F6802F1F9148
:100EE0000F91FF90EF9008950F931F93CF93DF938F
:100EF000EC0183E090E00E942A0783E090E06CEC34
:100F00000E94F00683E090E064E40E94F00683E033
:100F100090E00E942A0783E090E06CEC0E94F006CB
:100F200083E090E06EEB0E94F00683E090E00E9488
:100F30004107182F83E090E00E944107382F20E0FE
:100F4000F901E10FF11D8F010070107801151105F5
:100F500019F0F095E195FF4FCF0164E070E00E9439
:100F6000200B9B01CF01880F991F8E0F9F1F880FA9
:100F7000991F280F391FC90164E670E00E94200BF9
:100F8000FB01C90164E670E00E94200B9C01012B6B
:100F900011F08DE201C08BE28883CF018D599F4F04
:100FA000873C910518F480E2898307C0CF0164E68D
:100FB00070E00E94200B605D6983CF0164E670E001
:100FC0000E94200B6AE070E00E94200B605D6A8343
:100FD000CF016AE070E00E94200B805D8B838EE27F
:100FE0008C83C9016AE070E00E94200B605D6D8314
:100FF000C9016AE070E00E94200B805D8E831F8231
:10100000DF91CF911F910F910895EF92FF920F936F
:101010001F93DF93CF93CDB7DEB72A970FB6F8941F
:10102000DEBF0FBECDBF7C018E010F5F1F4FC80119
:101030000E9474078FE391E0B70140E050E028ED93
:1010400031E00E949C06AC018FE391E0B70125E9F5
:1010500031E00E949C06AC018FE391E0B70123E7E9
:1010600031E00E949C06AC018FE391E0B7012EE0D5
:1010700031E00E949606AC018FE391E0B70120E7D2
:1010800031E00E949C06AC018FE391E0B7012DE4B2
:1010900031E00E949C06AC018FE391E0B70121E3AF
:1010A00031E00E949C06AC01D8014A5C5F4FF70119
:1010B000E40FF51F4653504003C081934F5F5F4FCD
:1010C0008D918823D1F78FE391E0B70127E131E0DB
:1010D0000E949C06AC018FE391E0B70122EF30E063
:1010E0000E949C06AC018FE391E0B7012FEB30E04A
:1010F0000E949C06AC018FE391E0B70128E630E046
:101100000E949C062A960FB6F894DEBF0FBECDBF94
:10111000CF91DF911F910F91FF90EF9008950F9362
:101120001F93CF93DF938FE391E064EF71E047E586
:1011300051E00E9484068C01009709F497C08FE368
:1011400091E067E571E0A8010E947906882339F0F3
:101150008FE391E067E571E00E94750687C08FE339
:1011600091E067E571E0A8010E947006882309F408
:101170007DC080916E01813069F480917901883061
:1011800009F074C08FE391E067E571E0A8010E9467
:101190006B066CC0863009F069C080917B018823A2
:1011A00009F064C080917C01803509F05FC08091B6
:1011B000860181FF07C08FE391E067E571E00E943F
:1011C000670654C084FF52C08FE391E067E571E089
:1011D0000E9463068FE391E00E946006EC01009795
:1011E00059F48091860180FF41C08FE391E067E56B
:1011F00071E00E945C063AC0BC01695A7E4F84E0EF
:1012000091E044E050E00E947901009759F08FE3AB
:1012100091E067E571E040E050E025E032E00E94B7
:101220009C0616C0BE01655A7E4F89E091E042E0FF
:1012300050E00E947901009739F0CE01845A9E4F08
:101240000E94DE06813029F487E591E00E940508BE
:101250008C018FE391E067E571E00E945C068FE30B
:1012600091E067E571E0A8010E945706DF91CF91F8
:101270001F910F910895EF92FF920F931F930FE329
:1012800011E063E2E62E61E0F62EC801B7010E948C
:101290009206C80162E00E948E066AE070E080E07B
:1012A00090E00E94F209C80164E140E858E00E9421
:1012B000890664EF71E080E090E00E94F209C801C5
:1012C00064E140E959E00E94890664EF71E080E042
:1012D00090E00E94F209C80164E140E858E00E94F1
:1012E000890664EF71E080E090E00E94F209C80195
:1012F00064E140E959E00E94890664EF71E080E012
:1013000090E00E94F209C80164E146E754E00E94BF
:10131000890664E670E080E090E00E94F209C8016E
:10132000B70149E251E020E50E947E0683E060E0DB
:101330000E94840A83E060E00E94640A1F910F917A
:10134000FF90EF9008950E942A0A0E943B090E9494
:101350008F08FDCF1F920F920FB60F9211242F937B
:101360003F938F939F93AF93BF938091500390913E
:101370005103A0915203B09153033091540301964D
:10138000A11DB11D232F2D5F2D3720F02D57019664
:10139000A11DB11D209354038093500390935103DA
:1013A000A0935203B093530380914C0390914D034B
:1013B000A0914E03B0914F030196A11DB11D8093E2
:1013C0004C0390934D03A0934E03B0934F03BF91F2
:1013D000AF919F918F913F912F910F900FBE0F90E2
:1013E0001F901895EF92FF920F931F937B018C0132
:1013F0008FB7F8944091500350915103609152037C
:10140000709153038FBF2FB7F89480915003909140
:101410005103A0915203B09153032FBF841B950B2E
:10142000A60BB70BE816F9060A071B0760F71F9112
:101430000F91FF90EF900895019759F0FC01EE0F86
:10144000FF1FEE0FFF1F32978FB7F8943197F1F718
:101450008FBF0895789484B5826084BD84B581601F
:1014600084BD85B5826085BD85B5816085BDEEE6AC
:10147000F0E0808181608083E1E8F0E0808182603B
:101480008083808181608083E0E8F0E080818160FA
:101490008083E1EBF0E0808184608083E0EBF0E02A
:1014A000808181608083EAE7F0E0808184608083CE
:1014B0008081826080838081816080838081806878
:1014C00080831092C1000895282F30E0C9018D5803
:1014D0009D4FFC019491215A3D4FF901849188233D
:1014E00091F0E82FF0E0EE0FFF1FEF5BFD4FA591AD
:1014F000B491662329F48C91909589238C93089557
:101500008C91892B8C930895482F50E0CA018957FC
:101510009D4FFC012491CA018D589D4FFC0194916F
:10152000415A5D4FFA0134913323D1F1222331F135
:10153000233021F4809180008F7705C0243031F46E
:10154000809180008F7D8093800018C0213019F435
:1015500084B58F7704C0223021F484B58F7D84BD9B
:101560000DC0263021F48091B0008F7705C0273060
:1015700029F48091B0008F7D8093B000E32FF0E0DC
:10158000EE0FFF1FE55BFD4FA591B491662329F493
:101590008C91909589238C9308958C91892B8C93B1
:1015A0000895682F70E0CB0189579D4FFC0124916D
:1015B000CB018D589D4FFC014491615A7D4FFB0139
:1015C0009491992319F420E030E038C0222331F1BE
:1015D000233021F4809180008F7705C0243031F4CE
:1015E000809180008F7D8093800018C0213019F495
:1015F00084B58F7704C0223021F484B58F7D84BDFB
:101600000DC0263021F48091B0008F7705C02730BF
:1016100029F48091B0008F7D8093B000892F90E0F5
:10162000880F991F8B5A9D4FFC01A591B4918C9105
:1016300020E030E0842311F021E030E0C90108957A
:1016400097FB092E07260AD077FD04D00CD006D0D0
:1016500000201AF4709561957F4F0895F6F79095E4
:1016600081959F4F0895AA1BBB1B51E107C0AA1F7C
:10167000BB1FA617B70710F0A61BB70B881F991F33
:101680005A95A9F780959095BC01CD010895EE0F6C
:0E169000FF1F0590F491E02D0994F894FFCF10
:10169E00636D640047455420002F20000A50687483
:1016AE0074703A2F2F3139322E3136382E312E3189
:0E16BE00352F00545558100024C0A8010F000D
:00000001FF
