:100000000C942E010C9456010C9456010C9456013C
:100010000C9456010C9456010C9456010C94560104
:100020000C9456010C9456010C9456010C945601F4
:100030000C9456010C9456010C9456010C945601E4
:100040000C9408080C9456010C9456010C9456011B
:100050000C9456010C9456010C9456010C945601C4
:100060000C9456010C9456013C2F63656E746572B6
:100070003E3C68723E202056312E30203C61206884
:100080007265663D22687474703A2F2F7777772EE9
:100090006E75656C656374726F6E6963732E636FE2
:1000A0006D223E7777772E6E75656C656374726F1F
:1000B0006E6963732E636F6D3C613E0020203C626D
:1000C000723E3C2F666F6E743E3C2F68323E2000BD
:1000D0003C62723E205265616420646967697461A4
:1000E0006C20616E616C6F6720696E70757473202F
:1000F0004845524520003C62723E20436F6E747248
:100100006F6C206469676974616C206F75747075B9
:10011000747320003C68723E3C62723E203C683240
:100120003E3C666F6E7420636F6C6F723D22626C32
:100130007565223E2D2D2050757420796F757220C3
:1001400041524455494E4F206F6E6C696E65202DAB
:100150002D20003C63656E7465723E3C703E3C68C9
:10016000313E57656C636F6D6520746F204172641A
:1001700075696E6F2045746865726E65742053688A
:1001800069656C642056312E3020203C2F68313E4A
:100190003C2F703E2000485454502F312E302032D6
:1001A0003030204F4B0D0A436F6E74656E742D54C2
:1001B0007970653A20746578742F68746D6C0D0AD7
:1001C0000D0A00485454502F312E30203230302048
:1001D0004F4B0D0A436F6E74656E742D54797065C4
:1001E0003A20746578742F68746D6C0D0A0D0A3CA2
:1001F00068313E323030204F4B3C2F68313E00009A
:10020000000000240027002A00000000002500282C
:10021000002B000000000023002600290004040435
:10022000040404040402020202020203030303039F
:10023000030102040810204080010204081020017C
:10024000020408102000000007000201000003045F
:1002500006000000000000000000B20611241FBECE
:10026000CFEFD8E0DEBFCDBF11E0A0E0B1E0EEE619
:10027000F2E102C005900D92A831B107D9F713E061
:10028000A8E1B1E001C01D92AF33B107E1F712E080
:10029000CCE5D2E004C02297FE010E943109CA35A4
:1002A000D107C9F70E9401080C9435090C9400008D
:1002B000FB01DC014150504030F08D9101908019DC
:1002C00019F40020B9F7881B990B08950F931F9319
:1002D000CF93DF938C01EB018AE060E00E94E2089B
:1002E0008AE78EBD0DB407FEFDCF08C088818EBDA4
:1002F0000DB407FEFDCF01501040219601151105E8
:10030000A9F78AE061E00E94E208DF91CF911F9196
:100310000F9108950F931F93CF93DF938C01EB01FF
:100320008AE060E00E94E2088AE38EBD0DB407FE19
:10033000FDCF9801FE0108C01EBC0DB407FEFDCF25
:10034000215030408EB5819321153105A9F7C00F9A
:10035000D11F18828AE061E00E94E208DF91CF910C
:100360001F910F910895FF920F931F93082F162F3F
:10037000F42E8AE060E00E94E2081F71102B1EBD7F
:100380000DB407FEFDCFFEBC0DB407FEFDCF8AE025
:1003900061E00E94E2081F910F91FF9008951F9362
:1003A000CF93DF93182FC82FD0E0C076D070809104
:1003B000180190E0C817D90791F080EA6FE143E097
:1003C0000E94B30185E0D595C7958A95E1F780E84D
:1003D0006FE14C2F0E94B301107610931801DF914A
:1003E000CF911F9108950F931F93182F062F0E94EE
:1003F000CF0180E4612F402F0E94B3011F910F9124
:100400000895682F677085E70E94F30108950F93A0
:100410001F93182F062F8AE060E00E94E208802FC9
:100420008F71812B8EBD0DB407FEFDCF1EBC0DB4A8
:1004300007FEFDCF07FF04C01EBC0DB407FEFDCFB5
:100440008AE061E00E94E2088EB51F910F91089545
:100450001F93182F0E94CF0180E0612F0E94070296
:100460001F910895EF92FF920F931F938C017B01D0
:1004700082E06FEF0E94F30183E069E10E94F301E3
:10048000602F615086E00E94F30198012150364EA2
:1004900087E0632F0E94F3018AE760E040E00E945A
:1004A000B301C801B7010E94660180E86FE148E02E
:1004B0000E94B3018CE10E94280281FF05C080EAFE
:1004C0006FE148E00E94B3011F910F91FF90EF9000
:1004D0000895AF92BF92CF92DF92EF92FF920F9367
:1004E0001F93CF93DF936C015B0189E30E94280285
:1004F000882319F4C0E0D0E05DC080E0609119016C
:100500000E94F30160911A0181E00E94F3018AE3E5
:1005100060E00E940702082F10E010931A01009378
:1005200019018AE360E00E940702382F20E0202BA7
:10053000312B30931A01209319018AE360E00E9465
:100540000702E82E8AE360E00E940702F82E8AE3A1
:1005500060E00E940702082F10E08AE360E00E943A
:100560000702382F20E0202B312B27FD03C0C0E0ED
:10057000D0E011C0CE2DD0E09F2D80E0C82BD92B2C
:10058000C601019724978C179D0708F4EC01CE0152
:10059000B5010E948A018CE0609119010E94F3016B
:1005A00060911A018DE00E94F30180E86EE140E461
:1005B0000E94B301CE01DF91CF911F910F91FF9067
:1005C000EF90DF90CF90BF90AF9008950F931F935F
:1005D000982F162F072F84ED692F0E94F30186EDC7
:1005E000612F0E94F30187ED602F0E94F30104C088
:1005F0008FE090E00E947A088AEE0E94280280FD37
:10060000F7CF1F910F9108950F931F938C018AE0EC
:1006100061E00E94C2088AE061E00E94E2088BE08B
:1006200061E00E94C2088DE061E00E94C2088CE097
:1006300060E00E94C2088BE060E00E94E2088DE06A
:1006400060E00E94E20880E58CBD8DB581608DBDC3
:100650008FEF60E04FEF0E94B30162E370E080E053
:1006600090E00E94500810921A011092190188E03F
:1006700060E00E94F30189E060E00E94F3018CE0F9
:1006800060E00E94F3018DE060E00E94F3018AE0E7
:100690006EEF0E94F3018BE069E10E94F30184E0B8
:1006A0006FEF0E94F30185E069E10E94F30186E0AB
:1006B0006FEF0E94F30187E06FE10E94F30188E38E
:1006C00060EB0E94F30188E26FE30E94F30189E28C
:1006D00060E30E94F30180E369EF0E94F30181E38C
:1006E00067EF0E94F30180EC6DE00E94F30181EC62
:1006F00060E00E94F30180E862EC42E30E94B301F3
:1007000086EC62E10E94F30187EC6CE00E94F30149
:1007100084EC62E10E94F3018AEC6CED0E94F3012B
:100720008BEC65E00E94F30184EEF80160810E9489
:10073000F30185EEF80161810E94F30182EEF80178
:1007400062810E94F30183EEF80163810E94F3014C
:1007500080EEF80164810E94F30181EEF801658169
:100760000E94F30180E160E071E00E94E6028FE107
:100770000E94CF0180E86BE140EC0E94B30180E869
:100780006FE144E00E94B3011F910F910895EF9231
:10079000FF920F931F93CF93DF937C01413061F45D
:1007A000685070409B0140E050E0685F7F4F2F5ED3
:1007B0003F4F4F4F5F4F12C0423029F020E030E0F2
:1007C00040E050E00BC0685070409B0140E050E0BA
:1007D000685F7F4F2A5F3F4F4F4F5F4FE7018B01AD
:1007E0000FC0F881E0E0898190E08E2B9F2BA0E084
:1007F000B0E0280F391F4A1F5B1F2296025010409D
:100800000230110570F7FB01EE7FEE0DFF1D60FF5A
:100810000DC0908180E0AA2797FDA095BA2F02C055
:1008200040705070280F391F4A1F5B1FCA01AA274A
:10083000BB270097A105B10599F720953095C9010F
:10084000DF91CF911F910F91FF90EF900895CF937B
:10085000DF93EC0140930D0120E030E0F901EB5D06
:10086000FE4FDB01A20FB31F8C9180832F5F3F4FA0
:100870002430310599F720E030E0F901E15EFE4FC8
:10088000DE01A20FB31F8C9180832F5F3F4F263074
:10089000310599F7DF91CF910895FC016932710517
:1008A000B0F08485883099F48585863081F4DF0145
:1008B0009696E5E2F1E09C918081981741F41196BB
:1008C000319681E0E932F807B1F781E0089580E0E0
:1008D0000895FC016A327105D0F084858830B9F43E
:1008E00085858823A1F48685853489F4DF01E5E2D6
:1008F000F1E05E969C915E978081981741F4119685
:10090000319681E0E932F807A1F781E0089580E0AF
:1009100008950F931F938C01FC01108E118E80E4BB
:10092000848B158A868BC8010E9664E170E040E0E6
:100930000E94C703F801908F818F1F910F91089536
:10094000AC01FC01A5E2B1E0828D868F8D91828F92
:10095000319681E0A932B807B9F7CA010E9489042B
:100960000895FC0182A184A312A283A185A313A2EE
:1009700080910D0183A3DF01999694E08C91680F1B
:10098000711D14968C91149714966C9314972223CE
:1009900011F08C9301C01C9291501197992319F07A
:1009A000672F7727EBCF222349F416A217A2809155
:1009B0000C0180A711A68E5F80930C0112AA13AAC6
:1009C000442351F082E086AB84E087AB85E080AFC2
:1009D00080E881AF80E601C080E586A70895809118
:1009E0001B0190911C01892B19F420E030E006C016
:1009F00020911D0130911E012E5D3F4FC9010895C8
:100A0000FC01908980E0218930E0282B392B86A5D4
:100A100082958F7090E0880F991F880F991F90938F
:100A20001E0180931D0124513040281B390B309347
:100A30001C0120931B011216130624F010921C01B6
:100A400010921B0108956A5C7F4FDC01A60FB71F4F
:100A50006653704003C08D936F5F7F4FFA014F5F05
:100A60005F4F84918823B9F7CB010895EF92FF92ED
:100A70000F931F938C017B0189E1F80187A7CB01BC
:100A80008896908B818BC8010E948904F80112AA74
:100A900013AA8CE190E0E80EF91EC8014A96B7014E
:100AA00042E00E94C703F80192AB83ABC7014A96AC
:100AB000B8010E9432021F910F91FF90EF900895AC
:100AC000CF93DF93EC01FC01AFE1B1E0868180833D
:100AD0008D918683319681E0A532B807B9F780E120
:100AE0008FA760911B0170911C016115710521F4A4
:100AF000CE0161E070E001C0CE0140E021E00E9443
:100B0000B104188A88E2898BCE010E94A004CE012C
:100B10004A966CE170E042E00E94C7039AAB8BAB4F
:100B200086E390E0BE010E943202DF91CF910895EA
:100B3000CF93DF93EC01FC01AFE1B1E086818083CC
:100B40008D918683319681E0A532B807B9F7188A6E
:100B50008CE2898BCE010E94A00482E18FA7CE0196
:100B600061E070E041E020E00E94B104CE014A96CD
:100B700060E270E042E00E94C7039AAB8BAB8AE36D
:100B800090E0BE010E943202DF91CF9108950F9351
:100B90001F93CF93DF93EC018B01FC01AFE1B1E038
:100BA000868180838D918683319681E0A532B80756
:100BB000B9F7CE010E94A0041AA28CA1883F18F0B8
:100BC0008DA18F5F8DA38CA1885F8CA3C801BE010E
:100BD0000E943202DF91CF911F910F910895CF9320
:100BE000DF93AC01EC012FE131E0FC01D9018681FA
:100BF00080838D918683319681E0A532B807B9F75D
:100C0000FA01148A82E0858B8E8988A3F90181918B
:100C10009F018E8B2196F1E025323F07A9F7FA015B
:100C20007C96A5E2B1E0808182878D91819381E0FD
:100C3000A932B807C1F78AE290E0BA010E943202F5
:100C4000DF91CF9108950895CB01BA010E94360536
:100C50000895CB010E94600508950E94EF04089555
:100C6000CB010E9400050895CB010E9498050895CC
:100C7000CB01BA010E94C7050895CB01BA010E94B9
:100C800069040895CB010E94EF050895CB01BA01D4
:100C90000E944D040895CB01BA01422F0E942704FF
:100CA0000895CB01BA010E9469020895862FBA0106
:100CB0000E94E6020895862F0E9401020895CB014A
:100CC0000E9404030895CB01BA01A9010E942305E3
:100CD0000895CF93DF93EC01FB0140E010C08081C9
:100CE000981759F431968081882341F421968881A0
:100CF0008D3319F4FB0141E001C0FB01219698817D
:100D0000992329F0903219F0442349F302C041306D
:100D1000C1F49C2FAAE2B1E002C08D9321969E01FE
:100D2000291BE22F8881882341F0803231F08632FE
:100D300021F031E0A034B30781F7F0E0E65DFE4F2B
:100D40001082842FDF91CF91089560E071E00E94BE
:100D50006906882329F080912A0180538A3008F09F
:100D60008FEF089589E291E00E9423060895EF92A3
:100D7000FF920F931F937C0109E211E0C801B701B4
:100D800040E050E026E931E00E946306AC01C80172
:100D9000B70123E531E00E946306AC01C801B70149
:100DA00024E131E00E946306AC01C801B70126EFDF
:100DB00030E00E946306AC01C801B70120ED30E0CD
:100DC0000E946306AC01C801B7012CEB30E00E9421
:100DD0006306AC01C801B70128E630E00E94630653
:100DE0001F910F91FF90EF9008950F931F93CF9352
:100DF000DF9389E291E064EF71E041E451E00E9409
:100E000051068C01009709F497C089E291E061E4F2
:100E100071E0A8010E944606882339F089E291E03A
:100E200061E471E00E94420687C089E291E061E4DA
:100E300071E0A8010E943D06882309F47DC08091DD
:100E40005801813069F480916301883009F074C0E1
:100E500089E291E061E471E0A8010E9438066CC06B
:100E6000863009F069C080916501882309F064C06B
:100E700080916601803509F05FC08091700181FF2B
:100E800007C089E291E061E471E00E94340654C039
:100E900084FF52C089E291E061E471E00E94300673
:100EA00089E291E00E942D06EC01009759F48091AF
:100EB000700180FF41C089E291E061E471E00E942D
:100EC00029063AC0BC016F5B7E4F84E091E044E0AC
:100ED00050E00E945801009759F089E291E061E4E6
:100EE00071E040E050E023EC31E00E94630616C060
:100EF000BE016B5B7E4F89E091E042E050E00E94D2
:100F00005801009739F0CE018A5B9E4F0E94A506DA
:100F1000813029F481E491E00E94B7068C0189E2D6
:100F200091E061E471E00E94290689E291E061E4C8
:100F300071E0A8010E942406DF91CF911F910F91CB
:100F40000895EF92FF920F931F9309E211E08EE054
:100F5000E82E81E0F82EC801B7010E945F06C801A3
:100F600062E00E945B066AE070E080E090E00E9430
:100F70005008C80164E140E858E00E94560664EF5A
:100F800071E080E090E00E945008C80164E140E90F
:100F900059E00E94560664EF71E080E090E00E9404
:100FA0005008C80164E140E858E00E94560664EF2A
:100FB00071E080E090E00E945008C80164E140E9DF
:100FC00059E00E94560664EF71E080E090E00E94D4
:100FD0005008C80164E146E754E00E94560664E602
:100FE00070E080E090E00E945008C801B70144E141
:100FF00051E020E50E944B061F910F91FF90EF906A
:1010000008950E9488080E94A1070E94F506FDCF5E
:101010001F920F920FB60F9211242F933F938F932D
:101020009F93AF93BF9380913A0390913B03A0911C
:101030003C03B0913D0330913E030196A11DB11DCB
:10104000232F2D5F2D3720F02D570196A11DB11DA7
:1010500020933E0380933A0390933B03A0933C0379
:10106000B0933D038091360390913703A0913803EC
:10107000B09139030196A11DB11D80933603909361
:101080003703A0933803B0933903BF91AF919F9179
:101090008F913F912F910F900FBE0F901F90189539
:1010A000EF92FF920F931F937B018C018FB7F894FF
:1010B00040913A0350913B0360913C0370913D0392
:1010C0008FBF2FB7F89480913A0390913B03A09182
:1010D0003C03B0913D032FBF841B950BA60BB70BB0
:1010E000E816F9060A071B0760F71F910F91FF909A
:1010F000EF900895019759F0FC01EE0FFF1FEE0FDE
:10110000FF1F32978FB7F8943197F1F78FBF08958B
:10111000789484B5826084BD84B5816084BD85B5D2
:10112000826085BD85B5816085BDEEE6F0E0808199
:1011300081608083E1E8F0E080818260808380814B
:1011400081608083E0E8F0E0808181608083E1EB72
:10115000F0E0808184608083E0EBF0E0808181605A
:101160008083EAE7F0E08081846080838081826010
:1011700080838081816080838081806880831092F9
:10118000C1000895282F30E0C9018F5C9D4FFC01FC
:101190009491235E3D4FF9018491882391F0E82FCB
:1011A000F0E0EE0FFF1FE150FE4FA591B4916623D2
:1011B00029F48C91909589238C9308958C91892B97
:1011C0008C930895482F50E0CA018B5B9D4FFC0122
:1011D0002491CA018F5C9D4FFC019491435E5D4F49
:1011E000FA0134913323D1F1222331F1233021F458
:1011F000809180008F7705C0243031F48091800089
:101200008F7D8093800018C0213019F484B58F77CA
:1012100004C0223021F484B58F7D84BD0DC02630FA
:1012200021F48091B0008F7705C0273029F4809198
:10123000B0008F7D8093B000E32FF0E0EE0FFF1F32
:10124000E75FFD4FA591B491662329F48C919095A9
:1012500089238C9308958C91892B8C930895EE0F9C
:0E126000FF1F0590F491E02D0994F894FFCF44
:10126E00636D640047455420002F20000A505455EA
:08127E0058100024C0A8010F64
:00000001FF
